{
  "contractName": "Auction",
  "abi": [
    {
      "constant": true,
      "inputs": [],
      "name": "_highestBidder",
      "outputs": [
        {
          "name": "",
          "type": "address"
        }
      ],
      "payable": false,
      "stateMutability": "view",
      "type": "function"
    },
    {
      "inputs": [],
      "payable": false,
      "stateMutability": "nonpayable",
      "type": "constructor"
    },
    {
      "constant": false,
      "inputs": [
        {
          "name": "amount",
          "type": "uint256"
        }
      ],
      "name": "bid",
      "outputs": [],
      "payable": true,
      "stateMutability": "payable",
      "type": "function"
    },
    {
      "constant": true,
      "inputs": [],
      "name": "getHighestBidder",
      "outputs": [
        {
          "name": "",
          "type": "address"
        }
      ],
      "payable": false,
      "stateMutability": "view",
      "type": "function"
    },
    {
      "constant": false,
      "inputs": [],
      "name": "reset",
      "outputs": [],
      "payable": false,
      "stateMutability": "nonpayable",
      "type": "function"
    }
  ],
  "bytecode": "0x6060604052341561000f57600080fd5b6000600181905550610256806100266000396000f300606060405260043610610061576000357c0100000000000000000000000000000000000000000000000000000000900463ffffffff1680623495a414610066578063454a2ab3146100bb578063d826f88f146100d3578063e3364bf6146100e8575b600080fd5b341561007157600080fd5b61007961013d565b604051808273ffffffffffffffffffffffffffffffffffffffff1673ffffffffffffffffffffffffffffffffffffffff16815260200191505060405180910390f35b6100d16004808035906020019091905050610166565b005b34156100de57600080fd5b6100e66101bb565b005b34156100f357600080fd5b6100fb610205565b604051808273ffffffffffffffffffffffffffffffffffffffff1673ffffffffffffffffffffffffffffffffffffffff16815260200191505060405180910390f35b60008060009054906101000a900473ffffffffffffffffffffffffffffffffffffffff16905090565b6001548111156101b857336000806101000a81548173ffffffffffffffffffffffffffffffffffffffff021916908373ffffffffffffffffffffffffffffffffffffffff160217905550806001819055505b50565b6000600181905550306000806101000a81548173ffffffffffffffffffffffffffffffffffffffff021916908373ffffffffffffffffffffffffffffffffffffffff160217905550565b6000809054906101000a900473ffffffffffffffffffffffffffffffffffffffff16815600a165627a7a72305820cffba137ecbac2a2772ab9fa9dddba9e86eb27914b9e5a8a71839cbba0fca0f80029",
  "source": "pragma solidity ^0.4.17;\n\ncontract Auction {\n\n  //current highest bidder for auction\n  address public _highestBidder;\n\n  //current highest bid\n  uint _highestBid;\n\n  function Auction() public { _highestBid = 0; }\n\n  //\n  //I should be using msg.value however, it's currently unknown to me how to pass that from the unit test.  That's why you see an unused payable modifier on the function.\n  //\n  function bid(uint amount) public payable {\n    if(amount > _highestBid) {\n      _highestBidder = msg.sender;\n      _highestBid = amount;\n    }\n  }\n\n  //\n  //Getters\n  //\n  function getHighestBidder() public view returns (address) {\n    return _highestBidder;\n  }\n\n  //\n  //For testing support\n  //\n  function reset() public {\n    _highestBid = 0;\n    _highestBidder = this;\n  }\n}\n",
  "sourcePath": "/Users/abc/crypto-currency/ethereum/tutorials/auction/contracts/Auction.sol",
  "compiler": {
    "name": "solc",
    "version": "0.4.19+commit.c4cbbb05.Emscripten.clang"
  },
  "schemaVersion": "1.0.1",
  "updatedAt": "2018-03-08T15:10:44.361Z"
}