{
  "contractName": "Auction",
  "abi": [
    {
      "constant": true,
      "inputs": [],
      "name": "_highestBidder",
      "outputs": [
        {
          "name": "",
          "type": "address"
        }
      ],
      "payable": false,
      "stateMutability": "view",
      "type": "function"
    },
    {
      "inputs": [],
      "payable": false,
      "stateMutability": "nonpayable",
      "type": "constructor"
    },
    {
      "constant": false,
      "inputs": [
        {
          "name": "bidder",
          "type": "address"
        }
      ],
      "name": "bid",
      "outputs": [],
      "payable": true,
      "stateMutability": "payable",
      "type": "function"
    },
    {
      "constant": true,
      "inputs": [],
      "name": "getHighestBidder",
      "outputs": [
        {
          "name": "",
          "type": "address"
        }
      ],
      "payable": false,
      "stateMutability": "view",
      "type": "function"
    }
  ],
  "bytecode": "0x6060604052341561000f57600080fd5b6000600181905550610202806100266000396000f300606060405260043610610056576000357c0100000000000000000000000000000000000000000000000000000000900463ffffffff1680623495a41461005b5780639cf5453d146100b0578063e3364bf6146100de575b600080fd5b341561006657600080fd5b61006e610133565b604051808273ffffffffffffffffffffffffffffffffffffffff1673ffffffffffffffffffffffffffffffffffffffff16815260200191505060405180910390f35b6100dc600480803573ffffffffffffffffffffffffffffffffffffffff1690602001909190505061015c565b005b34156100e957600080fd5b6100f16101b1565b604051808273ffffffffffffffffffffffffffffffffffffffff1673ffffffffffffffffffffffffffffffffffffffff16815260200191505060405180910390f35b60008060009054906101000a900473ffffffffffffffffffffffffffffffffffffffff16905090565b6001543411156101ae57806000806101000a81548173ffffffffffffffffffffffffffffffffffffffff021916908373ffffffffffffffffffffffffffffffffffffffff160217905550346001819055505b50565b6000809054906101000a900473ffffffffffffffffffffffffffffffffffffffff16815600a165627a7a72305820f91db9c9f63a831d64f33811a370f812bcbf0acaa09a5443ba0eda12759b8d9e0029",
  "source": "pragma solidity ^0.4.17;\n\ncontract Auction {\n\n  //current highest bidder for auction\n  address public _highestBidder;\n\n  //current highest bid\n  uint _highestBid;\n\n  function Auction() public { _highestBid = 0; }\n\n  function bid(address bidder) public payable {\n    if(msg.value > _highestBid){\n      _highestBidder = bidder;\n      _highestBid = msg.value;\n    }\n  }\n\n  //\n  //Getters\n  //\n  function getHighestBidder() public view returns (address) {\n    return _highestBidder;\n  }\n}\n",
  "sourcePath": "/Users/abc/crypto-currency/ethereum/tutorials/auction/contracts/Auction.sol",
  "compiler": {
    "name": "solc",
    "version": "0.4.19+commit.c4cbbb05.Emscripten.clang"
  },
  "schemaVersion": "1.0.1",
  "updatedAt": "2018-03-08T03:47:08.195Z"
}